{
  "_format": "hh-sol-artifact-1",
  "contractName": "CoinCircles",
  "sourceName": "contracts/Lock.sol",
  "abi": [
    {
      "anonymous": false,
      "inputs": [
        {
          "indexed": false,
          "internalType": "uint256",
          "name": "chamaIds",
          "type": "uint256"
        },
        {
          "indexed": false,
          "internalType": "string",
          "name": "name",
          "type": "string"
        }
      ],
      "name": "ChamaCreated",
      "type": "event"
    },
    {
      "anonymous": false,
      "inputs": [
        {
          "indexed": false,
          "internalType": "string",
          "name": "name",
          "type": "string"
        },
        {
          "indexed": false,
          "internalType": "address",
          "name": "user_address",
          "type": "address"
        },
        {
          "indexed": false,
          "internalType": "uint256",
          "name": "amount",
          "type": "uint256"
        }
      ],
      "name": "ContributionMade",
      "type": "event"
    },
    {
      "anonymous": false,
      "inputs": [
        {
          "indexed": false,
          "internalType": "string",
          "name": "chamaName",
          "type": "string"
        },
        {
          "indexed": false,
          "internalType": "address",
          "name": "recipient",
          "type": "address"
        },
        {
          "indexed": false,
          "internalType": "uint256",
          "name": "amount",
          "type": "uint256"
        }
      ],
      "name": "FundsDistributed",
      "type": "event"
    },
    {
      "anonymous": false,
      "inputs": [
        {
          "indexed": false,
          "internalType": "string",
          "name": "chamaName",
          "type": "string"
        },
        {
          "indexed": false,
          "internalType": "address",
          "name": "recipient",
          "type": "address"
        },
        {
          "indexed": false,
          "internalType": "uint256",
          "name": "amountReceived",
          "type": "uint256"
        }
      ],
      "name": "FundsReceived",
      "type": "event"
    },
    {
      "anonymous": false,
      "inputs": [
        {
          "indexed": false,
          "internalType": "string",
          "name": "chamaName",
          "type": "string"
        },
        {
          "indexed": false,
          "internalType": "address",
          "name": "newMember",
          "type": "address"
        }
      ],
      "name": "MemberAddedToPrivateChama",
      "type": "event"
    },
    {
      "anonymous": false,
      "inputs": [
        {
          "indexed": false,
          "internalType": "address",
          "name": "wallet_address",
          "type": "address"
        }
      ],
      "name": "UserConnected",
      "type": "event"
    },
    {
      "anonymous": false,
      "inputs": [
        {
          "indexed": false,
          "internalType": "string",
          "name": "name",
          "type": "string"
        },
        {
          "indexed": false,
          "internalType": "address",
          "name": "user_address",
          "type": "address"
        }
      ],
      "name": "UserJoinedChama",
      "type": "event"
    },
    {
      "anonymous": false,
      "inputs": [
        {
          "indexed": false,
          "internalType": "string",
          "name": "name",
          "type": "string"
        },
        {
          "indexed": false,
          "internalType": "address",
          "name": "voter",
          "type": "address"
        },
        {
          "indexed": false,
          "internalType": "address",
          "name": "recipient",
          "type": "address"
        }
      ],
      "name": "VoteCast",
      "type": "event"
    },
    {
      "anonymous": false,
      "inputs": [
        {
          "indexed": false,
          "internalType": "string",
          "name": "name",
          "type": "string"
        },
        {
          "indexed": false,
          "internalType": "address",
          "name": "recipient",
          "type": "address"
        }
      ],
      "name": "VotingStarted",
      "type": "event"
    },
    {
      "inputs": [
        {
          "internalType": "string",
          "name": "_name",
          "type": "string"
        },
        {
          "internalType": "address",
          "name": "new_member",
          "type": "address"
        }
      ],
      "name": "add_members_to_privatechama",
      "outputs": [],
      "stateMutability": "nonpayable",
      "type": "function"
    },
    {
      "inputs": [
        {
          "internalType": "string",
          "name": "_name",
          "type": "string"
        }
      ],
      "name": "allMembersContributedInCurrentRound",
      "outputs": [
        {
          "internalType": "bool",
          "name": "",
          "type": "bool"
        }
      ],
      "stateMutability": "view",
      "type": "function"
    },
    {
      "inputs": [
        {
          "internalType": "uint256",
          "name": "",
          "type": "uint256"
        }
      ],
      "name": "chamas",
      "outputs": [
        {
          "internalType": "string",
          "name": "name",
          "type": "string"
        },
        {
          "internalType": "uint256",
          "name": "maxNoOfPeople",
          "type": "uint256"
        },
        {
          "internalType": "bool",
          "name": "isFull",
          "type": "bool"
        },
        {
          "internalType": "enum CoinCircles.ChamaVisibility",
          "name": "visibility",
          "type": "uint8"
        },
        {
          "internalType": "address",
          "name": "owner",
          "type": "address"
        },
        {
          "internalType": "uint256",
          "name": "targetAmountPerRound",
          "type": "uint256"
        },
        {
          "internalType": "uint256",
          "name": "totalContribution",
          "type": "uint256"
        },
        {
          "internalType": "uint256",
          "name": "numberOfRounds",
          "type": "uint256"
        },
        {
          "internalType": "uint256",
          "name": "minimumNoOfPeople",
          "type": "uint256"
        },
        {
          "internalType": "bool",
          "name": "hasContributionStarted",
          "type": "bool"
        },
        {
          "internalType": "uint256",
          "name": "currentRound",
          "type": "uint256"
        }
      ],
      "stateMutability": "view",
      "type": "function"
    },
    {
      "inputs": [],
      "name": "connect_user",
      "outputs": [],
      "stateMutability": "nonpayable",
      "type": "function"
    },
    {
      "inputs": [
        {
          "internalType": "string",
          "name": "_name",
          "type": "string"
        }
      ],
      "name": "contributeFunds",
      "outputs": [],
      "stateMutability": "payable",
      "type": "function"
    },
    {
      "inputs": [
        {
          "internalType": "uint256",
          "name": "",
          "type": "uint256"
        },
        {
          "internalType": "uint256",
          "name": "",
          "type": "uint256"
        }
      ],
      "name": "contributorsInCurrentRound",
      "outputs": [
        {
          "internalType": "address",
          "name": "",
          "type": "address"
        }
      ],
      "stateMutability": "view",
      "type": "function"
    },
    {
      "inputs": [
        {
          "internalType": "string",
          "name": "_name",
          "type": "string"
        },
        {
          "internalType": "uint256",
          "name": "_maxNoOfPeople",
          "type": "uint256"
        },
        {
          "internalType": "enum CoinCircles.ChamaVisibility",
          "name": "_visibility",
          "type": "uint8"
        },
        {
          "internalType": "uint256",
          "name": "_minimumNoOfPeople",
          "type": "uint256"
        },
        {
          "internalType": "uint256",
          "name": "_targetAmountPerRound",
          "type": "uint256"
        }
      ],
      "name": "create_chama",
      "outputs": [],
      "stateMutability": "nonpayable",
      "type": "function"
    },
    {
      "inputs": [
        {
          "internalType": "address",
          "name": "",
          "type": "address"
        },
        {
          "internalType": "uint256",
          "name": "",
          "type": "uint256"
        }
      ],
      "name": "fundsReceived",
      "outputs": [
        {
          "internalType": "bool",
          "name": "",
          "type": "bool"
        }
      ],
      "stateMutability": "view",
      "type": "function"
    },
    {
      "inputs": [],
      "name": "getAllChamas",
      "outputs": [
        {
          "components": [
            {
              "internalType": "string",
              "name": "name",
              "type": "string"
            },
            {
              "internalType": "uint256",
              "name": "maxNoOfPeople",
              "type": "uint256"
            },
            {
              "internalType": "bool",
              "name": "isFull",
              "type": "bool"
            },
            {
              "internalType": "enum CoinCircles.ChamaVisibility",
              "name": "visibility",
              "type": "uint8"
            },
            {
              "internalType": "address[]",
              "name": "listOfMembers",
              "type": "address[]"
            },
            {
              "internalType": "address",
              "name": "owner",
              "type": "address"
            },
            {
              "internalType": "uint256",
              "name": "targetAmountPerRound",
              "type": "uint256"
            },
            {
              "internalType": "uint256",
              "name": "totalContribution",
              "type": "uint256"
            },
            {
              "internalType": "uint256",
              "name": "numberOfRounds",
              "type": "uint256"
            },
            {
              "internalType": "uint256",
              "name": "minimumNoOfPeople",
              "type": "uint256"
            },
            {
              "internalType": "bool",
              "name": "hasContributionStarted",
              "type": "bool"
            },
            {
              "internalType": "uint256",
              "name": "currentRound",
              "type": "uint256"
            }
          ],
          "internalType": "struct CoinCircles.ChamaDetails[]",
          "name": "",
          "type": "tuple[]"
        }
      ],
      "stateMutability": "view",
      "type": "function"
    },
    {
      "inputs": [
        {
          "internalType": "string",
          "name": "_name",
          "type": "string"
        }
      ],
      "name": "getPossibleRecipients",
      "outputs": [
        {
          "internalType": "address[]",
          "name": "",
          "type": "address[]"
        }
      ],
      "stateMutability": "view",
      "type": "function"
    },
    {
      "inputs": [
        {
          "internalType": "address",
          "name": "",
          "type": "address"
        },
        {
          "internalType": "uint256",
          "name": "",
          "type": "uint256"
        }
      ],
      "name": "hasContributed",
      "outputs": [
        {
          "internalType": "bool",
          "name": "",
          "type": "bool"
        }
      ],
      "stateMutability": "view",
      "type": "function"
    },
    {
      "inputs": [
        {
          "internalType": "uint256",
          "name": "chamaId",
          "type": "uint256"
        },
        {
          "internalType": "address",
          "name": "member",
          "type": "address"
        }
      ],
      "name": "hasContributedInCurrentRound",
      "outputs": [
        {
          "internalType": "bool",
          "name": "",
          "type": "bool"
        }
      ],
      "stateMutability": "view",
      "type": "function"
    },
    {
      "inputs": [
        {
          "internalType": "string",
          "name": "_name",
          "type": "string"
        },
        {
          "internalType": "address",
          "name": "_userAddress",
          "type": "address"
        }
      ],
      "name": "isMember",
      "outputs": [
        {
          "internalType": "bool",
          "name": "",
          "type": "bool"
        }
      ],
      "stateMutability": "view",
      "type": "function"
    },
    {
      "inputs": [
        {
          "internalType": "string",
          "name": "_name",
          "type": "string"
        }
      ],
      "name": "join_chama",
      "outputs": [],
      "stateMutability": "nonpayable",
      "type": "function"
    },
    {
      "inputs": [
        {
          "internalType": "string",
          "name": "_name",
          "type": "string"
        }
      ],
      "name": "startVoting",
      "outputs": [],
      "stateMutability": "nonpayable",
      "type": "function"
    },
    {
      "inputs": [
        {
          "internalType": "address",
          "name": "",
          "type": "address"
        }
      ],
      "name": "users",
      "outputs": [
        {
          "internalType": "address",
          "name": "wallet_address",
          "type": "address"
        },
        {
          "internalType": "bool",
          "name": "isConnected",
          "type": "bool"
        }
      ],
      "stateMutability": "view",
      "type": "function"
    },
    {
      "inputs": [
        {
          "internalType": "string",
          "name": "_name",
          "type": "string"
        },
        {
          "internalType": "address",
          "name": "recipient",
          "type": "address"
        }
      ],
      "name": "voteForRecipient",
      "outputs": [],
      "stateMutability": "nonpayable",
      "type": "function"
    },
    {
      "inputs": [
        {
          "internalType": "uint256",
          "name": "",
          "type": "uint256"
        }
      ],
      "name": "votings",
      "outputs": [
        {
          "internalType": "bool",
          "name": "isActive",
          "type": "bool"
        },
        {
          "internalType": "uint256",
          "name": "totalVotes",
          "type": "uint256"
        },
        {
          "internalType": "address",
          "name": "recipient",
          "type": "address"
        }
      ],
      "stateMutability": "view",
      "type": "function"
    }
  ],
  "bytecode": "0x608060405234801561001057600080fd5b50614b3b806100206000396000f3fe6080604052600436106101085760003560e01c806372d53d6e11610095578063a87430ba11610064578063a87430ba146103b1578063ae268abb146103ef578063d1b2823514610418578063df92824414610441578063e827e0e31461046a57610108565b806372d53d6e1461030757806375b0f0c5146103305780639e0cf4301461035b578063a598d03c1461037257610108565b80632fe839dd116100dc5780632fe839dd146101f75780634391cdc614610213578063445ab3511461025057806353f406ef1461028d5780636e74c4bd146102ca57610108565b80622b8dbf1461010d5780630695ee4a1461014a5780630b5d70851461018757806313af2d81146101ce575b600080fd5b34801561011957600080fd5b50610134600480360381019061012f9190612bfa565b6104a7565b6040516101419190612c7b565b60405180910390f35b34801561015657600080fd5b50610171600480360381019061016c9190612cc2565b6104f5565b60405161017e9190612d1d565b60405180910390f35b34801561019357600080fd5b506101ae60048036038101906101a99190612d38565b610573565b6040516101c59b9a99989796959493929190612e7b565b60405180910390f35b3480156101da57600080fd5b506101f560048036038101906101f09190613087565b61069c565b005b610211600480360381019061020c919061311e565b610a7e565b005b34801561021f57600080fd5b5061023a6004803603810190610235919061311e565b610f9a565b6040516102479190613225565b60405180910390f35b34801561025c57600080fd5b5061027760048036038101906102729190613247565b611094565b6040516102849190612d1d565b60405180910390f35b34801561029957600080fd5b506102b460048036038101906102af9190613287565b6110c3565b6040516102c19190612d1d565b60405180910390f35b3480156102d657600080fd5b506102f160048036038101906102ec9190613247565b61113b565b6040516102fe9190612d1d565b60405180910390f35b34801561031357600080fd5b5061032e6004803603810190610329919061311e565b61116a565b005b34801561033c57600080fd5b506103456113f2565b6040516103529190613596565b60405180910390f35b34801561036757600080fd5b506103706116ac565b005b34801561037e57600080fd5b5061039960048036038101906103949190612d38565b61184c565b6040516103a8939291906135b8565b60405180910390f35b3480156103bd57600080fd5b506103d860048036038101906103d391906135ef565b6118a3565b6040516103e692919061361c565b60405180910390f35b3480156103fb57600080fd5b5061041660048036038101906104119190613287565b6118f4565b005b34801561042457600080fd5b5061043f600480360381019061043a919061311e565b611baf565b005b34801561044d57600080fd5b5061046860048036038101906104639190613287565b611fcd565b005b34801561047657600080fd5b50610491600480360381019061048c919061311e565b6123db565b60405161049e9190612d1d565b60405180910390f35b600660205281600052604060002081815481106104c357600080fd5b906000526020600020016000915091509054906101000a900473ffffffffffffffffffffffffffffffffffffffff1681565b6000600360008373ffffffffffffffffffffffffffffffffffffffff1673ffffffffffffffffffffffffffffffffffffffff168152602001908152602001600020600060026000868152602001908152602001600020600d0154815260200190815260200160002060009054906101000a900460ff16905092915050565b600260205280600052604060002060009150905080600001805461059690613674565b80601f01602080910402602001604051908101604052809291908181526020018280546105c290613674565b801561060f5780601f106105e45761010080835404028352916020019161060f565b820191906000526020600020905b8154815290600101906020018083116105f257829003601f168201915b5050505050908060010154908060020160009054906101000a900460ff16908060020160019054906101000a900460ff16908060050160009054906101000a900473ffffffffffffffffffffffffffffffffffffffff169080600601549080600701549080600801549080600901549080600c0160009054906101000a900460ff169080600d015490508b565b600160003373ffffffffffffffffffffffffffffffffffffffff1673ffffffffffffffffffffffffffffffffffffffff16815260200190815260200160002060000160149054906101000a900460ff1661072b576040517f08c379a0000000000000000000000000000000000000000000000000000000008152600401610722906136f1565b60405180910390fd5b600284101561076f576040517f08c379a000000000000000000000000000000000000000000000000000000000815260040161076690613783565b60405180910390fd5b60008551116107b3576040517f08c379a00000000000000000000000000000000000000000000000000000000081526004016107aa90613815565b60405180910390fd5b60005b600054811015610846578580519060200120600260008381526020019081526020016000206000016040516107eb91906138d8565b604051809103902003610833576040517f08c379a000000000000000000000000000000000000000000000000000000000815260040161082a90613961565b60405180910390fd5b808061083e906139b0565b9150506107b6565b50600060026000805481526020019081526020016000209050858160000190816108709190613ba4565b5084816001018190555060008160020160006101000a81548160ff021916908315150217905550838160020160016101000a81548160ff021916908360018111156108be576108bd612e04565b5b0217905550338160050160006101000a81548173ffffffffffffffffffffffffffffffffffffffff021916908373ffffffffffffffffffffffffffffffffffffffff16021790555081816006018190555060008160070181905550828160090181905550600081600c0160006101000a81548160ff02191690831515021790555080600401805490508160080181905550600081600d018190555060008081548092919061096b906139b0565b919050555060018160030160003373ffffffffffffffffffffffffffffffffffffffff1673ffffffffffffffffffffffffffffffffffffffff16815260200190815260200160002060006101000a81548160ff02191690831515021790555080600401339080600181540180825580915050600190039060005260206000200160009091909190916101000a81548173ffffffffffffffffffffffffffffffffffffffff021916908373ffffffffffffffffffffffffffffffffffffffff1602179055507f49cb94e7d9a5343c1b6f9d204a2429b9ec84f610e0028abd5eff7f312e328fb46001600054610a5f9190613c76565b87604051610a6e929190613caa565b60405180910390a1505050505050565b600160003373ffffffffffffffffffffffffffffffffffffffff1673ffffffffffffffffffffffffffffffffffffffff16815260200190815260200160002060000160149054906101000a900460ff16610b0d576040517f08c379a0000000000000000000000000000000000000000000000000000000008152600401610b0490613d26565b60405180910390fd5b610b1681612501565b610b55576040517f08c379a0000000000000000000000000000000000000000000000000000000008152600401610b4c90613d92565b60405180910390fd5b6000610b6082612573565b9050610b6c82336110c3565b610bab576040517f08c379a0000000000000000000000000000000000000000000000000000000008152600401610ba290613e24565b60405180910390fd5b600260008281526020019081526020016000206009015460026000838152602001908152602001600020600401805490501015610c1d576040517f08c379a0000000000000000000000000000000000000000000000000000000008152600401610c1490613edc565b60405180910390fd5b610c2781336104f5565b15610c67576040517f08c379a0000000000000000000000000000000000000000000000000000000008152600401610c5e90613f6e565b60405180910390fd5b60026000828152602001908152602001600020600c0160009054906101000a900460ff16610cdb57600160026000838152602001908152602001600020600d0181905550600160026000838152602001908152602001600020600c0160006101000a81548160ff0219169083151502179055505b600060026000838152602001908152602001600020600401805490506002600084815260200190815260200160002060060154610d189190613fbd565b9050600034118015610d2a5750803410155b610d69576040517f08c379a0000000000000000000000000000000000000000000000000000000008152600401610d6090614086565b60405180910390fd5b3460026000848152602001908152602001600020600b0160003373ffffffffffffffffffffffffffffffffffffffff1673ffffffffffffffffffffffffffffffffffffffff168152602001908152602001600020600060026000868152602001908152602001600020600d015481526020019081526020016000206000828254610df391906140a6565b9250508190555034600260008481526020019081526020016000206007016000828254610e2091906140a6565b925050819055506001600360003373ffffffffffffffffffffffffffffffffffffffff1673ffffffffffffffffffffffffffffffffffffffff168152602001908152602001600020600060026000868152602001908152602001600020600d0154815260200190815260200160002060006101000a81548160ff02191690831515021790555060066000838152602001908152602001600020339080600181540180825580915050600190039060005260206000200160009091909190916101000a81548173ffffffffffffffffffffffffffffffffffffffff021916908373ffffffffffffffffffffffffffffffffffffffff1602179055507f47009afa84c68b5b4e7a26c9d516c7d5c50dba6f21c99e276c413173c4bfd434833334604051610f4d939291906140da565b60405180910390a16002600083815260200190815260200160002060040180549050600660008481526020019081526020016000208054905003610f9557610f948361116a565b5b505050565b6060610fa582612501565b610fe4576040517f08c379a0000000000000000000000000000000000000000000000000000000008152600401610fdb90613d92565b60405180910390fd5b6000610fef83612573565b90506002600082815260200190815260200160002060040180548060200260200160405190810160405280929190818152602001828054801561108757602002820191906000526020600020905b8160009054906101000a900473ffffffffffffffffffffffffffffffffffffffff1673ffffffffffffffffffffffffffffffffffffffff168152602001906001019080831161103d575b5050505050915050919050565b60056020528160005260406000206020528060005260406000206000915091509054906101000a900460ff1681565b6000806110cf84612573565b90506002600082815260200190815260200160002060030160008473ffffffffffffffffffffffffffffffffffffffff1673ffffffffffffffffffffffffffffffffffffffff16815260200190815260200160002060009054906101000a900460ff1691505092915050565b60036020528160005260406000206020528060005260406000206000915091509054906101000a900460ff1681565b600061117582612573565b905061118082612501565b6111bf576040517f08c379a00000000000000000000000000000000000000000000000000000000081526004016111b690613d92565b60405180910390fd5b3373ffffffffffffffffffffffffffffffffffffffff166002600083815260200190815260200160002060050160009054906101000a900473ffffffffffffffffffffffffffffffffffffffff1673ffffffffffffffffffffffffffffffffffffffff1614611263576040517f08c379a000000000000000000000000000000000000000000000000000000000815260040161125a9061418a565b60405180910390fd5b60026000828152602001908152602001600020600c0160009054906101000a900460ff1680156112c1575060026000828152602001908152602001600020600401805490506006600083815260200190815260200160002080549050145b611300576040517f08c379a00000000000000000000000000000000000000000000000000000000081526004016112f79061421c565b60405180910390fd5b60006004600083815260200190815260200160002090508060000160009054906101000a900460ff1615611369576040517f08c379a000000000000000000000000000000000000000000000000000000000815260040161136090614288565b60405180910390fd5b60018160000160006101000a81548160ff021916908315150217905550600081600201819055507f1717491964ed461717e87dd784d7d61860115153fbff339cdc79fa90ee04b179838260030160009054906101000a900473ffffffffffffffffffffffffffffffffffffffff166040516113e59291906142a8565b60405180910390a1505050565b60606000805467ffffffffffffffff81111561141157611410612f37565b5b60405190808252806020026020018201604052801561144a57816020015b611437612ae5565b81526020019060019003908161142f5790505b50905060005b6000548110156116a457600060026000838152602001908152602001600020905060405180610180016040528082600001805461148c90613674565b80601f01602080910402602001604051908101604052809291908181526020018280546114b890613674565b80156115055780601f106114da57610100808354040283529160200191611505565b820191906000526020600020905b8154815290600101906020018083116114e857829003601f168201915b50505050508152602001826001015481526020018260020160009054906101000a900460ff16151581526020018260020160019054906101000a900460ff16600181111561155657611555612e04565b5b8152602001826004018054806020026020016040519081016040528092919081815260200182805480156115df57602002820191906000526020600020905b8160009054906101000a900473ffffffffffffffffffffffffffffffffffffffff1673ffffffffffffffffffffffffffffffffffffffff1681526020019060010190808311611595575b505050505081526020018260050160009054906101000a900473ffffffffffffffffffffffffffffffffffffffff1673ffffffffffffffffffffffffffffffffffffffff1681526020018260060154815260200182600701548152602001826008015481526020018260090154815260200182600c0160009054906101000a900460ff161515815260200182600d0154815250838381518110611685576116846142d8565b5b602002602001018190525050808061169c906139b0565b915050611450565b508091505090565b600160003373ffffffffffffffffffffffffffffffffffffffff1673ffffffffffffffffffffffffffffffffffffffff16815260200190815260200160002060000160149054906101000a900460ff161561173c576040517f08c379a000000000000000000000000000000000000000000000000000000000815260040161173390614353565b60405180910390fd5b60405180604001604052803373ffffffffffffffffffffffffffffffffffffffff16815260200160011515815250600160003373ffffffffffffffffffffffffffffffffffffffff1673ffffffffffffffffffffffffffffffffffffffff16815260200190815260200160002060008201518160000160006101000a81548173ffffffffffffffffffffffffffffffffffffffff021916908373ffffffffffffffffffffffffffffffffffffffff16021790555060208201518160000160146101000a81548160ff0219169083151502179055509050507f9fe37c9a85a4cac3290d857b0b43b8afa0bbad4876059c8e1419d6d871b3fd43336040516118429190612c7b565b60405180910390a1565b60046020528060005260406000206000915090508060000160009054906101000a900460ff16908060020154908060030160009054906101000a900473ffffffffffffffffffffffffffffffffffffffff16905083565b60016020528060005260406000206000915090508060000160009054906101000a900473ffffffffffffffffffffffffffffffffffffffff16908060000160149054906101000a900460ff16905082565b60006118ff83612573565b905061190a83612501565b611949576040517f08c379a000000000000000000000000000000000000000000000000000000000815260040161194090613d92565b60405180910390fd5b61195383336110c3565b611992576040517f08c379a000000000000000000000000000000000000000000000000000000000815260040161198990613e24565b60405180910390fd5b60006004600083815260200190815260200160002090508060000160009054906101000a900460ff166119fa576040517f08c379a00000000000000000000000000000000000000000000000000000000081526004016119f1906143bf565b60405180910390fd5b8060010160003373ffffffffffffffffffffffffffffffffffffffff1673ffffffffffffffffffffffffffffffffffffffff16815260200190815260200160002060009054906101000a900460ff1615611a89576040517f08c379a0000000000000000000000000000000000000000000000000000000008152600401611a809061442b565b60405180910390fd5b828160030160006101000a81548173ffffffffffffffffffffffffffffffffffffffff021916908373ffffffffffffffffffffffffffffffffffffffff16021790555060018160010160003373ffffffffffffffffffffffffffffffffffffffff1673ffffffffffffffffffffffffffffffffffffffff16815260200190815260200160002060006101000a81548160ff021916908315150217905550806002016000815480929190611b3b906139b0565b91905055507f6480a673c6798d710f472bdbcd50fd52792fd3aa867d9b05d601ea10c96da380843385604051611b739392919061444b565b60405180910390a16002600083815260200190815260200160002060040180549050816002015403611ba957611ba88461261a565b5b50505050565b6000611bba82612573565b9050600160003373ffffffffffffffffffffffffffffffffffffffff1673ffffffffffffffffffffffffffffffffffffffff16815260200190815260200160002060000160149054906101000a900460ff16611c4b576040517f08c379a0000000000000000000000000000000000000000000000000000000008152600401611c42906136f1565b60405180910390fd5b611c5482612501565b611c93576040517f08c379a0000000000000000000000000000000000000000000000000000000008152600401611c8a90613d92565b60405180910390fd5b611c9d82336110c3565b15611cdd576040517f08c379a0000000000000000000000000000000000000000000000000000000008152600401611cd4906144d5565b60405180910390fd5b611ce682612aab565b15611d26576040517f08c379a0000000000000000000000000000000000000000000000000000000008152600401611d1d90614541565b60405180910390fd5b600180811115611d3957611d38612e04565b5b6002600083815260200190815260200160002060020160019054906101000a900460ff166001811115611d6f57611d6e612e04565b5b03611daf576040517f08c379a0000000000000000000000000000000000000000000000000000000008152600401611da6906145d3565b60405180910390fd5b60026000828152602001908152602001600020600c0160009054906101000a900460ff1615611e13576040517f08c379a0000000000000000000000000000000000000000000000000000000008152600401611e0a90614665565b60405180910390fd5b60016002600083815260200190815260200160002060030160003373ffffffffffffffffffffffffffffffffffffffff1673ffffffffffffffffffffffffffffffffffffffff16815260200190815260200160002060006101000a81548160ff02191690831515021790555060026000828152602001908152602001600020600401339080600181540180825580915050600190039060005260206000200160009091909190916101000a81548173ffffffffffffffffffffffffffffffffffffffff021916908373ffffffffffffffffffffffffffffffffffffffff160217905550600260008281526020019081526020016000206004018054905060026000838152602001908152602001600020600801819055506002600082815260200190815260200160002060010154600260008381526020019081526020016000206004018054905003611f905760016002600083815260200190815260200160002060020160006101000a81548160ff0219169083151502179055505b7f2d4dbabe968ddfcbea1ca8addb6588a51b9ea18a08aa56c9e7757fca3bbf76ed8233604051611fc19291906142a8565b60405180910390a15050565b611fd682612501565b612015576040517f08c379a000000000000000000000000000000000000000000000000000000000815260040161200c90613d92565b60405180910390fd5b600061202083612573565b905060018081111561203557612034612e04565b5b6002600083815260200190815260200160002060020160019054906101000a900460ff16600181111561206b5761206a612e04565b5b146120ab576040517f08c379a00000000000000000000000000000000000000000000000000000000081526004016120a2906146f7565b60405180910390fd5b3373ffffffffffffffffffffffffffffffffffffffff166002600083815260200190815260200160002060050160009054906101000a900473ffffffffffffffffffffffffffffffffffffffff1673ffffffffffffffffffffffffffffffffffffffff161461214f576040517f08c379a000000000000000000000000000000000000000000000000000000000815260040161214690614789565b60405180910390fd5b6002600082815260200190815260200160002060030160008373ffffffffffffffffffffffffffffffffffffffff1673ffffffffffffffffffffffffffffffffffffffff16815260200190815260200160002060009054906101000a900460ff16156121f0576040517f08c379a00000000000000000000000000000000000000000000000000000000081526004016121e79061481b565b60405180910390fd5b60026000828152602001908152602001600020600c0160009054906101000a900460ff1615612254576040517f08c379a000000000000000000000000000000000000000000000000000000000815260040161224b90614665565b60405180910390fd5b60016002600083815260200190815260200160002060030160008473ffffffffffffffffffffffffffffffffffffffff1673ffffffffffffffffffffffffffffffffffffffff16815260200190815260200160002060006101000a81548160ff02191690831515021790555060026000828152602001908152602001600020600401829080600181540180825580915050600190039060005260206000200160009091909190916101000a81548173ffffffffffffffffffffffffffffffffffffffff021916908373ffffffffffffffffffffffffffffffffffffffff160217905550600260008281526020019081526020016000206001015460026000838152602001908152602001600020600401805490500361239d5760016002600083815260200190815260200160002060020160006101000a81548160ff0219169083151502179055505b7ffda8feabdeb39e866ca41c7e0985604f86aea5133c3909cb6b48a64273a871b083836040516123ce9291906142a8565b60405180910390a1505050565b6000806123e783612573565b905060005b60026000838152602001908152602001600020600401805490508110156124f55760036000600260008581526020019081526020016000206004018381548110612439576124386142d8565b5b9060005260206000200160009054906101000a900473ffffffffffffffffffffffffffffffffffffffff1673ffffffffffffffffffffffffffffffffffffffff1673ffffffffffffffffffffffffffffffffffffffff168152602001908152602001600020600060026000858152602001908152602001600020600d0154815260200190815260200160002060009054906101000a900460ff166124e2576000925050506124fc565b80806124ed906139b0565b9150506123ec565b5060019150505b919050565b600080600090505b6000548110156125685782805190602001206002600083815260200190815260200160002060000160405161253e91906138d8565b60405180910390200361255557600191505061256e565b8080612560906139b0565b915050612509565b50600090505b919050565b600080600090505b6000548110156125d9578280519060200120600260008381526020019081526020016000206000016040516125b091906138d8565b6040518091039020036125c65780915050612615565b80806125d1906139b0565b91505061257b565b506040517f08c379a000000000000000000000000000000000000000000000000000000000815260040161260c90614887565b60405180910390fd5b919050565b600061262582612573565b90506004600082815260200190815260200160002060000160009054906101000a900460ff1661268a576040517f08c379a0000000000000000000000000000000000000000000000000000000008152600401612681906143bf565b60405180910390fd5b612693826123db565b6126d2576040517f08c379a00000000000000000000000000000000000000000000000000000000081526004016126c99061421c565b60405180910390fd5b60006004600083815260200190815260200160002090506000600260008481526020019081526020016000206007015490506000600260008581526020019081526020016000206007018190555060008111612763576040517f08c379a000000000000000000000000000000000000000000000000000000000815260040161275a906148f3565b60405180910390fd5b600260008481526020019081526020016000206008015460026000858152602001908152602001600020600d015411156127d2576040517f08c379a00000000000000000000000000000000000000000000000000000000081526004016127c99061495f565b60405180910390fd5b60005b60026000858152602001908152602001600020600401805490508110156128da57600060036000600260008881526020019081526020016000206004018481548110612824576128236142d8565b5b9060005260206000200160009054906101000a900473ffffffffffffffffffffffffffffffffffffffff1673ffffffffffffffffffffffffffffffffffffffff1673ffffffffffffffffffffffffffffffffffffffff168152602001908152602001600020600060026000888152602001908152602001600020600d0154815260200190815260200160002060006101000a81548160ff02191690831515021790555080806128d2906139b0565b9150506127d5565b506006600084815260200190815260200160002060006128fa9190612b72565b60026000848152602001908152602001600020600d016000815480929190612921906139b0565b919050555060006004600085815260200190815260200160002060000160006101000a81548160ff02191690831515021790555060008260030160009054906101000a900473ffffffffffffffffffffffffffffffffffffffff16905060008173ffffffffffffffffffffffffffffffffffffffff16835a906040516129a6906149a5565b600060405180830381858888f193505050503d80600081146129e4576040519150601f19603f3d011682016040523d82523d6000602084013e6129e9565b606091505b5050905080612a2d576040517f08c379a0000000000000000000000000000000000000000000000000000000008152600401612a2490614a52565b60405180910390fd5b7f054d53368c7f57909410721809acf5632411d3c372442c62b3f30ebfe5405c65868385604051612a6093929190614ac7565b60405180910390a17f364fae47de00b43c3442ae9ace2852859234fdf84a1f79580fba5989c9b8a607868385604051612a9b93929190614ac7565b60405180910390a1505050505050565b600080612ab783612573565b90506002600082815260200190815260200160002060020160009054906101000a900460ff16915050919050565b604051806101800160405280606081526020016000815260200160001515815260200160006001811115612b1c57612b1b612e04565b5b815260200160608152602001600073ffffffffffffffffffffffffffffffffffffffff16815260200160008152602001600081526020016000815260200160008152602001600015158152602001600081525090565b5080546000825590600052602060002090810190612b909190612b93565b50565b5b80821115612bac576000816000905550600101612b94565b5090565b6000604051905090565b600080fd5b600080fd5b6000819050919050565b612bd781612bc4565b8114612be257600080fd5b50565b600081359050612bf481612bce565b92915050565b60008060408385031215612c1157612c10612bba565b5b6000612c1f85828601612be5565b9250506020612c3085828601612be5565b9150509250929050565b600073ffffffffffffffffffffffffffffffffffffffff82169050919050565b6000612c6582612c3a565b9050919050565b612c7581612c5a565b82525050565b6000602082019050612c906000830184612c6c565b92915050565b612c9f81612c5a565b8114612caa57600080fd5b50565b600081359050612cbc81612c96565b92915050565b60008060408385031215612cd957612cd8612bba565b5b6000612ce785828601612be5565b9250506020612cf885828601612cad565b9150509250929050565b60008115159050919050565b612d1781612d02565b82525050565b6000602082019050612d326000830184612d0e565b92915050565b600060208284031215612d4e57612d4d612bba565b5b6000612d5c84828501612be5565b91505092915050565b600081519050919050565b600082825260208201905092915050565b60005b83811015612d9f578082015181840152602081019050612d84565b60008484015250505050565b6000601f19601f8301169050919050565b6000612dc782612d65565b612dd18185612d70565b9350612de1818560208601612d81565b612dea81612dab565b840191505092915050565b612dfe81612bc4565b82525050565b7f4e487b7100000000000000000000000000000000000000000000000000000000600052602160045260246000fd5b60028110612e4457612e43612e04565b5b50565b6000819050612e5582612e33565b919050565b6000612e6582612e47565b9050919050565b612e7581612e5a565b82525050565b6000610160820190508181036000830152612e96818e612dbc565b9050612ea5602083018d612df5565b612eb2604083018c612d0e565b612ebf606083018b612e6c565b612ecc608083018a612c6c565b612ed960a0830189612df5565b612ee660c0830188612df5565b612ef360e0830187612df5565b612f01610100830186612df5565b612f0f610120830185612d0e565b612f1d610140830184612df5565b9c9b505050505050505050505050565b600080fd5b600080fd5b7f4e487b7100000000000000000000000000000000000000000000000000000000600052604160045260246000fd5b612f6f82612dab565b810181811067ffffffffffffffff82111715612f8e57612f8d612f37565b5b80604052505050565b6000612fa1612bb0565b9050612fad8282612f66565b919050565b600067ffffffffffffffff821115612fcd57612fcc612f37565b5b612fd682612dab565b9050602081019050919050565b82818337600083830152505050565b600061300561300084612fb2565b612f97565b90508281526020810184848401111561302157613020612f32565b5b61302c848285612fe3565b509392505050565b600082601f83011261304957613048612f2d565b5b8135613059848260208601612ff2565b91505092915050565b6002811061306f57600080fd5b50565b60008135905061308181613062565b92915050565b600080600080600060a086880312156130a3576130a2612bba565b5b600086013567ffffffffffffffff8111156130c1576130c0612bbf565b5b6130cd88828901613034565b95505060206130de88828901612be5565b94505060406130ef88828901613072565b935050606061310088828901612be5565b925050608061311188828901612be5565b9150509295509295909350565b60006020828403121561313457613133612bba565b5b600082013567ffffffffffffffff81111561315257613151612bbf565b5b61315e84828501613034565b91505092915050565b600081519050919050565b600082825260208201905092915050565b6000819050602082019050919050565b61319c81612c5a565b82525050565b60006131ae8383613193565b60208301905092915050565b6000602082019050919050565b60006131d282613167565b6131dc8185613172565b93506131e783613183565b8060005b838110156132185781516131ff88826131a2565b975061320a836131ba565b9250506001810190506131eb565b5085935050505092915050565b6000602082019050818103600083015261323f81846131c7565b905092915050565b6000806040838503121561325e5761325d612bba565b5b600061326c85828601612cad565b925050602061327d85828601612be5565b9150509250929050565b6000806040838503121561329e5761329d612bba565b5b600083013567ffffffffffffffff8111156132bc576132bb612bbf565b5b6132c885828601613034565b92505060206132d985828601612cad565b9150509250929050565b600081519050919050565b600082825260208201905092915050565b6000819050602082019050919050565b600082825260208201905092915050565b600061332b82612d65565b613335818561330f565b9350613345818560208601612d81565b61334e81612dab565b840191505092915050565b61336281612bc4565b82525050565b61337181612d02565b82525050565b61338081612e5a565b82525050565b600082825260208201905092915050565b60006133a282613167565b6133ac8185613386565b93506133b783613183565b8060005b838110156133e85781516133cf88826131a2565b97506133da836131ba565b9250506001810190506133bb565b5085935050505092915050565b60006101808301600083015184820360008601526134138282613320565b91505060208301516134286020860182613359565b50604083015161343b6040860182613368565b50606083015161344e6060860182613377565b50608083015184820360808601526134668282613397565b91505060a083015161347b60a0860182613193565b5060c083015161348e60c0860182613359565b5060e08301516134a160e0860182613359565b506101008301516134b6610100860182613359565b506101208301516134cb610120860182613359565b506101408301516134e0610140860182613368565b506101608301516134f5610160860182613359565b508091505092915050565b600061350c83836133f5565b905092915050565b6000602082019050919050565b600061352c826132e3565b61353681856132ee565b935083602082028501613548856132ff565b8060005b8581101561358457848403895281516135658582613500565b945061357083613514565b925060208a0199505060018101905061354c565b50829750879550505050505092915050565b600060208201905081810360008301526135b08184613521565b905092915050565b60006060820190506135cd6000830186612d0e565b6135da6020830185612df5565b6135e76040830184612c6c565b949350505050565b60006020828403121561360557613604612bba565b5b600061361384828501612cad565b91505092915050565b60006040820190506136316000830185612c6c565b61363e6020830184612d0e565b9392505050565b7f4e487b7100000000000000000000000000000000000000000000000000000000600052602260045260246000fd5b6000600282049050600182168061368c57607f821691505b60208210810361369f5761369e613645565b5b50919050565b7f55736572206973206e6f7420636f6e6e65637465640000000000000000000000600082015250565b60006136db601583612d70565b91506136e6826136a5565b602082019050919050565b6000602082019050818103600083015261370a816136ce565b9050919050565b7f4368616d612073686f756c642068617665206174206c656173742074776f206d60008201527f656d626572730000000000000000000000000000000000000000000000000000602082015250565b600061376d602683612d70565b915061377882613711565b604082019050919050565b6000602082019050818103600083015261379c81613760565b9050919050565b7f546865206c656e677468206f6620746865206e616d652073686f756c64206e6f60008201527f7420626520656d70747900000000000000000000000000000000000000000000602082015250565b60006137ff602a83612d70565b915061380a826137a3565b604082019050919050565b6000602082019050818103600083015261382e816137f2565b9050919050565b600081905092915050565b60008190508160005260206000209050919050565b6000815461386281613674565b61386c8186613835565b94506001821660008114613887576001811461389c576138cf565b60ff19831686528115158202860193506138cf565b6138a585613840565b60005b838110156138c7578154818901526001820191506020810190506138a8565b838801955050505b50505092915050565b60006138e48284613855565b915081905092915050565b7f41206368616d6120776974682074686973206e616d6520616c7265616479206560008201527f7869737473000000000000000000000000000000000000000000000000000000602082015250565b600061394b602583612d70565b9150613956826138ef565b604082019050919050565b6000602082019050818103600083015261397a8161393e565b9050919050565b7f4e487b7100000000000000000000000000000000000000000000000000000000600052601160045260246000fd5b60006139bb82612bc4565b91507fffffffffffffffffffffffffffffffffffffffffffffffffffffffffffffffff82036139ed576139ec613981565b5b600182019050919050565b60008190508160005260206000209050919050565b60006020601f8301049050919050565b600082821b905092915050565b600060088302613a5a7fffffffffffffffffffffffffffffffffffffffffffffffffffffffffffffffff82613a1d565b613a648683613a1d565b95508019841693508086168417925050509392505050565b6000819050919050565b6000613aa1613a9c613a9784612bc4565b613a7c565b612bc4565b9050919050565b6000819050919050565b613abb83613a86565b613acf613ac782613aa8565b848454613a2a565b825550505050565b600090565b613ae4613ad7565b613aef818484613ab2565b505050565b5b81811015613b1357613b08600082613adc565b600181019050613af5565b5050565b601f821115613b5857613b29816139f8565b613b3284613a0d565b81016020851015613b41578190505b613b55613b4d85613a0d565b830182613af4565b50505b505050565b600082821c905092915050565b6000613b7b60001984600802613b5d565b1980831691505092915050565b6000613b948383613b6a565b9150826002028217905092915050565b613bad82612d65565b67ffffffffffffffff811115613bc657613bc5612f37565b5b613bd08254613674565b613bdb828285613b17565b600060209050601f831160018114613c0e5760008415613bfc578287015190505b613c068582613b88565b865550613c6e565b601f198416613c1c866139f8565b60005b82811015613c4457848901518255600182019150602085019450602081019050613c1f565b86831015613c615784890151613c5d601f891682613b6a565b8355505b6001600288020188555050505b505050505050565b6000613c8182612bc4565b9150613c8c83612bc4565b9250828203905081811115613ca457613ca3613981565b5b92915050565b6000604082019050613cbf6000830185612df5565b8181036020830152613cd18184612dbc565b90509392505050565b7f55736572206d75737420626520636f6e6e656374656400000000000000000000600082015250565b6000613d10601683612d70565b9150613d1b82613cda565b602082019050919050565b60006020820190508181036000830152613d3f81613d03565b9050919050565b7f4368616d6120646f6573206e6f74206578697374000000000000000000000000600082015250565b6000613d7c601483612d70565b9150613d8782613d46565b602082019050919050565b60006020820190508181036000830152613dab81613d6f565b9050919050565b7f55736572206973206e6f742061206d656d626572206f6620746869732063686160008201527f6d61000000000000000000000000000000000000000000000000000000000000602082015250565b6000613e0e602283612d70565b9150613e1982613db2565b604082019050919050565b60006020820190508181036000830152613e3d81613e01565b9050919050565b7f546865206d696e696d756d206e756d626572206f662070656f706c652072657160008201527f756972656420746f20737461727420636f6e747269627574696f6e206861732060208201527f6e6f74206265656e207265616368656400000000000000000000000000000000604082015250565b6000613ec6605083612d70565b9150613ed182613e44565b606082019050919050565b60006020820190508181036000830152613ef581613eb9565b9050919050565b7f596f75206861766520616c726561647920636f6e747269627574656420696e2060008201527f7468652063757272656e7420726f756e64000000000000000000000000000000602082015250565b6000613f58603183612d70565b9150613f6382613efc565b604082019050919050565b60006020820190508181036000830152613f8781613f4b565b9050919050565b7f4e487b7100000000000000000000000000000000000000000000000000000000600052601260045260246000fd5b6000613fc882612bc4565b9150613fd383612bc4565b925082613fe357613fe2613f8e565b5b828204905092915050565b7f456e74657220612076616c6964206e756d626572206f722061206e756d62657260008201527f207468617420657175616c73206f72206578636565647320796f757220636f7260208201527f7265637420636f6e747269627574696f6e000000000000000000000000000000604082015250565b6000614070605183612d70565b915061407b82613fee565b606082019050919050565b6000602082019050818103600083015261409f81614063565b9050919050565b60006140b182612bc4565b91506140bc83612bc4565b92508282019050808211156140d4576140d3613981565b5b92915050565b600060608201905081810360008301526140f48186612dbc565b90506141036020830185612c6c565b6141106040830184612df5565b949350505050565b7f4f6e6c7920746865206f776e65722063616e2073746172742074686520766f7460008201527f696e672070726f63657373000000000000000000000000000000000000000000602082015250565b6000614174602b83612d70565b915061417f82614118565b604082019050919050565b600060208201905081810360008301526141a381614167565b9050919050565b7f416c6c206d656d626572732068617665206e6f7420636f6e747269627574656460008201527f20696e207468652063757272656e7420726f756e640000000000000000000000602082015250565b6000614206603583612d70565b9150614211826141aa565b604082019050919050565b60006020820190508181036000830152614235816141f9565b9050919050565b7f566f74696e6720697320616c7265616479206163746976650000000000000000600082015250565b6000614272601883612d70565b915061427d8261423c565b602082019050919050565b600060208201905081810360008301526142a181614265565b9050919050565b600060408201905081810360008301526142c28185612dbc565b90506142d16020830184612c6c565b9392505050565b7f4e487b7100000000000000000000000000000000000000000000000000000000600052603260045260246000fd5b7f5573657220697320616c726561647920636f6e6e656374656400000000000000600082015250565b600061433d601983612d70565b915061434882614307565b602082019050919050565b6000602082019050818103600083015261436c81614330565b9050919050565b7f566f74696e67206973206e6f7420616374697665000000000000000000000000600082015250565b60006143a9601483612d70565b91506143b482614373565b602082019050919050565b600060208201905081810360008301526143d88161439c565b9050919050565b7f557365722068617320616c726561647920766f74656400000000000000000000600082015250565b6000614415601683612d70565b9150614420826143df565b602082019050919050565b6000602082019050818103600083015261444481614408565b9050919050565b600060608201905081810360008301526144658186612dbc565b90506144746020830185612c6c565b6144816040830184612c6c565b949350505050565b7f596f752063616e6e6f74206a6f696e2061206368616d61207477696365000000600082015250565b60006144bf601d83612d70565b91506144ca82614489565b602082019050919050565b600060208201905081810360008301526144ee816144b2565b9050919050565b7f4368616d612069732066756c6c00000000000000000000000000000000000000600082015250565b600061452b600d83612d70565b9150614536826144f5565b602082019050919050565b6000602082019050818103600083015261455a8161451e565b9050919050565b7f50726976617465204368616d61732063616e6e6f74206265206a6f696e65642060008201527f6469726563746c79000000000000000000000000000000000000000000000000602082015250565b60006145bd602883612d70565b91506145c882614561565b604082019050919050565b600060208201905081810360008301526145ec816145b0565b9050919050565b7f436f6e747269627574696f6e73206861766520616c726561647920737461727460008201527f65642c206e6f206e6577206d656d626572732063616e20626520616464656400602082015250565b600061464f603f83612d70565b915061465a826145f3565b604082019050919050565b6000602082019050818103600083015261467e81614642565b9050919050565b7f4f6e6c792070726976617465204368616d61732063616e2068617665206d656d60008201527f6265727320616464656400000000000000000000000000000000000000000000602082015250565b60006146e1602a83612d70565b91506146ec82614685565b604082019050919050565b60006020820190508181036000830152614710816146d4565b9050919050565b7f4f6e6c7920746865206f776e65722063616e20616464206d656d62657273207460008201527f6f20746869732070726976617465204368616d61000000000000000000000000602082015250565b6000614773603483612d70565b915061477e82614717565b604082019050919050565b600060208201905081810360008301526147a281614766565b9050919050565b7f5573657220697320616c72656164792061206d656d626572206f66207468697360008201527f206368616d610000000000000000000000000000000000000000000000000000602082015250565b6000614805602683612d70565b9150614810826147a9565b604082019050919050565b60006020820190508181036000830152614834816147f8565b9050919050565b7f4368616d61206e6f7420666f756e640000000000000000000000000000000000600082015250565b6000614871600f83612d70565b915061487c8261483b565b602082019050919050565b600060208201905081810360008301526148a081614864565b9050919050565b7f496e73756666696369656e742066756e647320746f2064697374726962757465600082015250565b60006148dd602083612d70565b91506148e8826148a7565b602082019050919050565b6000602082019050818103600083015261490c816148d0565b9050919050565b7f4368616d612068617320656e6465640000000000000000000000000000000000600082015250565b6000614949600f83612d70565b915061495482614913565b602082019050919050565b600060208201905081810360008301526149788161493c565b9050919050565b50565b600061498f600083613835565b915061499a8261497f565b600082019050919050565b60006149b082614982565b9150819050919050565b7f5472616e73666572206661696c65643a20726563697069656e74206d6179206e60008201527f6f742062652061626c6520746f20726563656976652066756e6473206f72206f60208201527f7574206f66206761730000000000000000000000000000000000000000000000604082015250565b6000614a3c604983612d70565b9150614a47826149ba565b606082019050919050565b60006020820190508181036000830152614a6b81614a2f565b9050919050565b6000614a8d614a88614a8384612c3a565b613a7c565b612c3a565b9050919050565b6000614a9f82614a72565b9050919050565b6000614ab182614a94565b9050919050565b614ac181614aa6565b82525050565b60006060820190508181036000830152614ae18186612dbc565b9050614af06020830185614ab8565b614afd6040830184612df5565b94935050505056fea2646970667358221220d9205ca68353e6c49b1f7672f9a5e3e27b718a986aa23177a96455b8a6d2a97064736f6c63430008130033",
  "linkReferences": {},
  "deployedLinkReferences": {}
}